{
  "contractName": "Charity",
  "abi": [
    {
      "inputs": [],
      "stateMutability": "nonpayable",
      "type": "constructor"
    },
    {
      "anonymous": false,
      "inputs": [
        {
          "indexed": false,
          "internalType": "bytes32",
          "name": "campaignId",
          "type": "bytes32"
        },
        {
          "indexed": false,
          "internalType": "address",
          "name": "initiator",
          "type": "address"
        }
      ],
      "name": "CampaignEnded",
      "type": "event"
    },
    {
      "anonymous": false,
      "inputs": [
        {
          "indexed": false,
          "internalType": "bytes32",
          "name": "campaignId",
          "type": "bytes32"
        },
        {
          "indexed": false,
          "internalType": "address",
          "name": "initiator",
          "type": "address"
        }
      ],
      "name": "CampaignStarted",
      "type": "event"
    },
    {
      "anonymous": false,
      "inputs": [
        {
          "indexed": false,
          "internalType": "bytes32",
          "name": "campaignId",
          "type": "bytes32"
        },
        {
          "indexed": false,
          "internalType": "address",
          "name": "donor",
          "type": "address"
        },
        {
          "indexed": false,
          "internalType": "uint256",
          "name": "amount",
          "type": "uint256"
        }
      ],
      "name": "FundsDonated",
      "type": "event"
    },
    {
      "anonymous": false,
      "inputs": [
        {
          "indexed": false,
          "internalType": "bytes32",
          "name": "campaignId",
          "type": "bytes32"
        },
        {
          "indexed": false,
          "internalType": "address",
          "name": "initiator",
          "type": "address"
        },
        {
          "indexed": false,
          "internalType": "uint256",
          "name": "amount",
          "type": "uint256"
        }
      ],
      "name": "WithdrawFunds",
      "type": "event"
    },
    {
      "inputs": [
        {
          "internalType": "bytes32",
          "name": "",
          "type": "bytes32"
        }
      ],
      "name": "_campaigns",
      "outputs": [
        {
          "internalType": "string",
          "name": "title",
          "type": "string"
        },
        {
          "internalType": "string",
          "name": "imgUrl",
          "type": "string"
        },
        {
          "internalType": "string",
          "name": "description",
          "type": "string"
        },
        {
          "internalType": "bool",
          "name": "isLive",
          "type": "bool"
        },
        {
          "internalType": "address",
          "name": "initiator",
          "type": "address"
        },
        {
          "internalType": "uint256",
          "name": "deadline",
          "type": "uint256"
        },
        {
          "internalType": "uint256",
          "name": "balance",
          "type": "uint256"
        }
      ],
      "stateMutability": "view",
      "type": "function",
      "constant": true
    },
    {
      "inputs": [
        {
          "internalType": "uint256",
          "name": "",
          "type": "uint256"
        }
      ],
      "name": "_campaignsList",
      "outputs": [
        {
          "internalType": "bytes32",
          "name": "",
          "type": "bytes32"
        }
      ],
      "stateMutability": "view",
      "type": "function",
      "constant": true
    },
    {
      "inputs": [
        {
          "internalType": "address",
          "name": "",
          "type": "address"
        },
        {
          "internalType": "bytes32",
          "name": "",
          "type": "bytes32"
        }
      ],
      "name": "userCampaignDonations",
      "outputs": [
        {
          "internalType": "uint256",
          "name": "",
          "type": "uint256"
        }
      ],
      "stateMutability": "view",
      "type": "function",
      "constant": true
    },
    {
      "inputs": [],
      "name": "getCampaignCount",
      "outputs": [
        {
          "internalType": "uint8",
          "name": "",
          "type": "uint8"
        }
      ],
      "stateMutability": "view",
      "type": "function",
      "constant": true
    },
    {
      "inputs": [
        {
          "internalType": "address",
          "name": "initiator",
          "type": "address"
        },
        {
          "internalType": "string",
          "name": "title",
          "type": "string"
        },
        {
          "internalType": "string",
          "name": "description",
          "type": "string"
        }
      ],
      "name": "generateCampaignId",
      "outputs": [
        {
          "internalType": "bytes32",
          "name": "",
          "type": "bytes32"
        }
      ],
      "stateMutability": "pure",
      "type": "function",
      "constant": true
    },
    {
      "inputs": [
        {
          "internalType": "string",
          "name": "title",
          "type": "string"
        },
        {
          "internalType": "string",
          "name": "description",
          "type": "string"
        },
        {
          "internalType": "string",
          "name": "imgUrl",
          "type": "string"
        }
      ],
      "name": "startCampaign",
      "outputs": [],
      "stateMutability": "nonpayable",
      "type": "function"
    },
    {
      "inputs": [
        {
          "internalType": "bytes32",
          "name": "campaignId",
          "type": "bytes32"
        }
      ],
      "name": "endCampaign",
      "outputs": [],
      "stateMutability": "nonpayable",
      "type": "function"
    },
    {
      "inputs": [
        {
          "internalType": "uint256",
          "name": "_batchNumber",
          "type": "uint256"
        }
      ],
      "name": "getCampaignsInBatch",
      "outputs": [
        {
          "internalType": "bytes32[]",
          "name": "",
          "type": "bytes32[]"
        }
      ],
      "stateMutability": "view",
      "type": "function",
      "constant": true
    },
    {
      "inputs": [
        {
          "internalType": "bytes32",
          "name": "campaignId",
          "type": "bytes32"
        }
      ],
      "name": "donateToCampaign",
      "outputs": [],
      "stateMutability": "payable",
      "type": "function",
      "payable": true
    },
    {
      "inputs": [
        {
          "internalType": "bytes32",
          "name": "campaignId",
          "type": "bytes32"
        }
      ],
      "name": "getCampaign",
      "outputs": [
        {
          "components": [
            {
              "internalType": "string",
              "name": "title",
              "type": "string"
            },
            {
              "internalType": "string",
              "name": "imgUrl",
              "type": "string"
            },
            {
              "internalType": "string",
              "name": "description",
              "type": "string"
            },
            {
              "internalType": "bool",
              "name": "isLive",
              "type": "bool"
            },
            {
              "internalType": "address",
              "name": "initiator",
              "type": "address"
            },
            {
              "internalType": "uint256",
              "name": "deadline",
              "type": "uint256"
            },
            {
              "internalType": "uint256",
              "name": "balance",
              "type": "uint256"
            }
          ],
          "internalType": "struct Charity.Campaign",
          "name": "",
          "type": "tuple"
        }
      ],
      "stateMutability": "view",
      "type": "function",
      "constant": true
    },
    {
      "inputs": [
        {
          "internalType": "bytes32",
          "name": "campaignId",
          "type": "bytes32"
        }
      ],
      "name": "withdrawCampaignFunds",
      "outputs": [],
      "stateMutability": "nonpayable",
      "type": "function"
    }
  ],
  "bytecode": "0x608060405234801561001057600080fd5b506120f4806100206000396000f3fe60806040526004361061009c5760003560e01c8063913afba511610064578063913afba5146101b257806397c9f7c8146101db5780639c32c26b14610218578063cabe045214610255578063e13475c814610292578063feb6a298146102ae5761009c565b80632596d2df146100a157806329777bc6146100e45780636caa92181461010d578063840f35f3146101385780638ce8d46514610175575b600080fd5b3480156100ad57600080fd5b506100c860048036038101906100c391906110a3565b6102d7565b6040516100db97969594939291906111d5565b60405180910390f35b3480156100f057600080fd5b5061010b600480360381019061010691906110a3565b6104de565b005b34801561011957600080fd5b5061012261063b565b60405161012f9190611275565b60405180910390f35b34801561014457600080fd5b5061015f600480360381019061015a91906112bc565b610651565b60405161016c91906112fc565b60405180910390f35b34801561018157600080fd5b5061019c60048036038101906101979190611343565b610676565b6040516101a9919061137f565b60405180910390f35b3480156101be57600080fd5b506101d960048036038101906101d491906110a3565b61068e565b005b3480156101e757600080fd5b5061020260048036038101906101fd91906113ff565b6108f8565b60405161020f919061137f565b60405180910390f35b34801561022457600080fd5b5061023f600480360381019061023a9190611343565b610939565b60405161024c9190611552565b60405180910390f35b34801561026157600080fd5b5061027c600480360381019061027791906110a3565b610a02565b6040516102899190611695565b60405180910390f35b6102ac60048036038101906102a791906110a3565b610c6a565b005b3480156102ba57600080fd5b506102d560048036038101906102d091906116b7565b610dfb565b005b60026020528060005260406000206000915090508060000180546102fa9061179a565b80601f01602080910402602001604051908101604052809291908181526020018280546103269061179a565b80156103735780601f1061034857610100808354040283529160200191610373565b820191906000526020600020905b81548152906001019060200180831161035657829003601f168201915b5050505050908060010180546103889061179a565b80601f01602080910402602001604051908101604052809291908181526020018280546103b49061179a565b80156104015780601f106103d657610100808354040283529160200191610401565b820191906000526020600020905b8154815290600101906020018083116103e457829003601f168201915b5050505050908060020180546104169061179a565b80601f01602080910402602001604051908101604052809291908181526020018280546104429061179a565b801561048f5780601f106104645761010080835404028352916020019161048f565b820191906000526020600020905b81548152906001019060200180831161047257829003601f168201915b5050505050908060030160009054906101000a900460ff16908060030160019054906101000a900473ffffffffffffffffffffffffffffffffffffffff16908060040154908060050154905087565b60006002600083815260200190815260200160002090508060030160019054906101000a900473ffffffffffffffffffffffffffffffffffffffff1673ffffffffffffffffffffffffffffffffffffffff163373ffffffffffffffffffffffffffffffffffffffff1614610587576040517f08c379a000000000000000000000000000000000000000000000000000000000815260040161057e90611817565b60405180910390fd5b8060030160009054906101000a900460ff166105d8576040517f08c379a00000000000000000000000000000000000000000000000000000000081526004016105cf90611883565b60405180910390fd5b60008160030160006101000a81548160ff0219169083151502179055504281600401819055507f278a5f2f2583840f91e2f85f9c8643a05c7b3ab62b487aa41e593d56eba30491823360405161062f9291906118a3565b60405180910390a15050565b60008060009054906101000a900460ff16905090565b6003602052816000526040600020602052806000526040600020600091509150505481565b60016020528060005260406000206000915090505481565b60006002600083815260200190815260200160002090508060030160019054906101000a900473ffffffffffffffffffffffffffffffffffffffff1673ffffffffffffffffffffffffffffffffffffffff163373ffffffffffffffffffffffffffffffffffffffff1614610737576040517f08c379a000000000000000000000000000000000000000000000000000000000815260040161072e90611817565b60405180910390fd5b8060030160009054906101000a900460ff1615610789576040517f08c379a000000000000000000000000000000000000000000000000000000000815260040161078090611918565b60405180910390fd5b806004015442116107cf576040517f08c379a00000000000000000000000000000000000000000000000000000000081526004016107c690611984565b60405180910390fd5b6000816005015411610816576040517f08c379a000000000000000000000000000000000000000000000000000000000815260040161080d906119f0565b60405180910390fd5b600081600501549050600082600501819055508160030160019054906101000a900473ffffffffffffffffffffffffffffffffffffffff1673ffffffffffffffffffffffffffffffffffffffff166108fc829081150290604051600060405180830381858888f19350505050158015610893573d6000803e3d6000fd5b507f35ec88416fb8c4e0ad0ee0c23a1aa6c0ff90c9426a895aac02f414a62c420e62838360030160019054906101000a900473ffffffffffffffffffffffffffffffffffffffff16836040516108eb93929190611a10565b60405180910390a1505050565b600080858585858a604051602001610914959493929190611ace565b6040516020818303038152906040528051906020012090508091505095945050505050565b60606000600567ffffffffffffffff81111561095857610957611b07565b5b6040519080825280602002602001820160405280156109865781602001602082028036833780820191505090505b50905060008360056109989190611b65565b905060005b60058110156109f7576001600082846109b69190611ba7565b8152602001908152602001600020548382815181106109d8576109d7611bdb565b5b60200260200101818152505080806109ef90611c0a565b91505061099d565b508192505050919050565b610a0a61100e565b600260008381526020019081526020016000206040518060e0016040529081600082018054610a389061179a565b80601f0160208091040260200160405190810160405280929190818152602001828054610a649061179a565b8015610ab15780601f10610a8657610100808354040283529160200191610ab1565b820191906000526020600020905b815481529060010190602001808311610a9457829003601f168201915b50505050508152602001600182018054610aca9061179a565b80601f0160208091040260200160405190810160405280929190818152602001828054610af69061179a565b8015610b435780601f10610b1857610100808354040283529160200191610b43565b820191906000526020600020905b815481529060010190602001808311610b2657829003601f168201915b50505050508152602001600282018054610b5c9061179a565b80601f0160208091040260200160405190810160405280929190818152602001828054610b889061179a565b8015610bd55780601f10610baa57610100808354040283529160200191610bd5565b820191906000526020600020905b815481529060010190602001808311610bb857829003601f168201915b505050505081526020016003820160009054906101000a900460ff161515151581526020016003820160019054906101000a900473ffffffffffffffffffffffffffffffffffffffff1673ffffffffffffffffffffffffffffffffffffffff1673ffffffffffffffffffffffffffffffffffffffff168152602001600482015481526020016005820154815250509050919050565b60006002600083815260200190815260200160002090508060040154421115610cab5760008160030160006101000a81548160ff0219169083151502179055505b80600401544210610cf1576040517f08c379a0000000000000000000000000000000000000000000000000000000008152600401610ce890611c9e565b60405180910390fd5b600034905060008111610d39576040517f08c379a0000000000000000000000000000000000000000000000000000000008152600401610d3090611d0a565b60405180910390fd5b80826005016000828254610d4d9190611ba7565b9250508190555080600360003373ffffffffffffffffffffffffffffffffffffffff1673ffffffffffffffffffffffffffffffffffffffff16815260200190815260200160002060008581526020019081526020016000206000828254610db49190611ba7565b925050819055507f54689524e07569c0ca87254312902d6ad3511bf3d0bb30dc6a1f67ae4e3bb53a833383604051610dee93929190611a10565b60405180910390a1505050565b6000610e1042610e0b9190611ba7565b90506000610e1c33898989896108f8565b905060006002600083815260200190815260200160002090508060030160009054906101000a900460ff1615610e87576040517f08c379a0000000000000000000000000000000000000000000000000000000008152600401610e7e90611d76565b60405180910390fd5b824210610ec9576040517f08c379a0000000000000000000000000000000000000000000000000000000008152600401610ec090611de2565b60405180910390fd5b8888826000019182610edc929190611fb9565b508686826002019182610ef0929190611fb9565b50338160030160016101000a81548173ffffffffffffffffffffffffffffffffffffffff021916908373ffffffffffffffffffffffffffffffffffffffff1602179055508484826001019182610f47929190611fb9565b5082816004018190555060018160030160006101000a81548160ff02191690831515021790555081600160008060009054906101000a900460ff1660ff16815260200190815260200160002081905550600160008054906101000a900460ff16610fb19190612089565b6000806101000a81548160ff021916908360ff1602179055507fdc0818b72ab921845d16549bba2517251c8478e66922d6feadca523530d9d3658233604051610ffb9291906118a3565b60405180910390a1505050505050505050565b6040518060e00160405280606081526020016060815260200160608152602001600015158152602001600073ffffffffffffffffffffffffffffffffffffffff16815260200160008152602001600081525090565b600080fd5b600080fd5b6000819050919050565b6110808161106d565b811461108b57600080fd5b50565b60008135905061109d81611077565b92915050565b6000602082840312156110b9576110b8611063565b5b60006110c78482850161108e565b91505092915050565b600081519050919050565b600082825260208201905092915050565b60005b8381101561110a5780820151818401526020810190506110ef565b60008484015250505050565b6000601f19601f8301169050919050565b6000611132826110d0565b61113c81856110db565b935061114c8185602086016110ec565b61115581611116565b840191505092915050565b60008115159050919050565b61117581611160565b82525050565b600073ffffffffffffffffffffffffffffffffffffffff82169050919050565b60006111a68261117b565b9050919050565b6111b68161119b565b82525050565b6000819050919050565b6111cf816111bc565b82525050565b600060e08201905081810360008301526111ef818a611127565b905081810360208301526112038189611127565b905081810360408301526112178188611127565b9050611226606083018761116c565b61123360808301866111ad565b61124060a08301856111c6565b61124d60c08301846111c6565b98975050505050505050565b600060ff82169050919050565b61126f81611259565b82525050565b600060208201905061128a6000830184611266565b92915050565b6112998161119b565b81146112a457600080fd5b50565b6000813590506112b681611290565b92915050565b600080604083850312156112d3576112d2611063565b5b60006112e1858286016112a7565b92505060206112f28582860161108e565b9150509250929050565b600060208201905061131160008301846111c6565b92915050565b611320816111bc565b811461132b57600080fd5b50565b60008135905061133d81611317565b92915050565b60006020828403121561135957611358611063565b5b60006113678482850161132e565b91505092915050565b6113798161106d565b82525050565b60006020820190506113946000830184611370565b92915050565b600080fd5b600080fd5b600080fd5b60008083601f8401126113bf576113be61139a565b5b8235905067ffffffffffffffff8111156113dc576113db61139f565b5b6020830191508360018202830111156113f8576113f76113a4565b5b9250929050565b60008060008060006060868803121561141b5761141a611063565b5b6000611429888289016112a7565b955050602086013567ffffffffffffffff81111561144a57611449611068565b5b611456888289016113a9565b9450945050604086013567ffffffffffffffff81111561147957611478611068565b5b611485888289016113a9565b92509250509295509295909350565b600081519050919050565b600082825260208201905092915050565b6000819050602082019050919050565b6114c98161106d565b82525050565b60006114db83836114c0565b60208301905092915050565b6000602082019050919050565b60006114ff82611494565b611509818561149f565b9350611514836114b0565b8060005b8381101561154557815161152c88826114cf565b9750611537836114e7565b925050600181019050611518565b5085935050505092915050565b6000602082019050818103600083015261156c81846114f4565b905092915050565b600082825260208201905092915050565b6000611590826110d0565b61159a8185611574565b93506115aa8185602086016110ec565b6115b381611116565b840191505092915050565b6115c781611160565b82525050565b6115d68161119b565b82525050565b6115e5816111bc565b82525050565b600060e08301600083015184820360008601526116088282611585565b915050602083015184820360208601526116228282611585565b9150506040830151848203604086015261163c8282611585565b915050606083015161165160608601826115be565b50608083015161166460808601826115cd565b5060a083015161167760a08601826115dc565b5060c083015161168a60c08601826115dc565b508091505092915050565b600060208201905081810360008301526116af81846115eb565b905092915050565b600080600080600080606087890312156116d4576116d3611063565b5b600087013567ffffffffffffffff8111156116f2576116f1611068565b5b6116fe89828a016113a9565b9650965050602087013567ffffffffffffffff81111561172157611720611068565b5b61172d89828a016113a9565b9450945050604087013567ffffffffffffffff8111156117505761174f611068565b5b61175c89828a016113a9565b92509250509295509295509295565b7f4e487b7100000000000000000000000000000000000000000000000000000000600052602260045260246000fd5b600060028204905060018216806117b257607f821691505b6020821081036117c5576117c461176b565b5b50919050565b7f4e6f742063616d706169676e20696e69746961746f7200000000000000000000600082015250565b60006118016016836110db565b915061180c826117cb565b602082019050919050565b60006020820190508181036000830152611830816117f4565b9050919050565b7f63616d706169676e206973206e6f742061637469766500000000000000000000600082015250565b600061186d6016836110db565b915061187882611837565b602082019050919050565b6000602082019050818103600083015261189c81611860565b9050919050565b60006040820190506118b86000830185611370565b6118c560208301846111ad565b9392505050565b7f63616d706169676e206973207374696c6c206163746976650000000000000000600082015250565b60006119026018836110db565b915061190d826118cc565b602082019050919050565b60006020820190508181036000830152611931816118f5565b9050919050565b7f43616d706169676e206973207374696c6c206163746976650000000000000000600082015250565b600061196e6018836110db565b915061197982611938565b602082019050919050565b6000602082019050818103600083015261199d81611961565b9050919050565b7f4e6f2066756e647320746f207769746864726177000000000000000000000000600082015250565b60006119da6014836110db565b91506119e5826119a4565b602082019050919050565b60006020820190508181036000830152611a09816119cd565b9050919050565b6000606082019050611a256000830186611370565b611a3260208301856111ad565b611a3f60408301846111c6565b949350505050565b600081905092915050565b82818337600083830152505050565b6000611a6d8385611a47565b9350611a7a838584611a52565b82840190509392505050565b60008160601b9050919050565b6000611a9e82611a86565b9050919050565b6000611ab082611a93565b9050919050565b611ac8611ac38261119b565b611aa5565b82525050565b6000611adb828789611a61565b9150611ae8828587611a61565b9150611af48284611ab7565b6014820191508190509695505050505050565b7f4e487b7100000000000000000000000000000000000000000000000000000000600052604160045260246000fd5b7f4e487b7100000000000000000000000000000000000000000000000000000000600052601160045260246000fd5b6000611b70826111bc565b9150611b7b836111bc565b9250828202611b89816111bc565b91508282048414831517611ba057611b9f611b36565b5b5092915050565b6000611bb2826111bc565b9150611bbd836111bc565b9250828201905080821115611bd557611bd4611b36565b5b92915050565b7f4e487b7100000000000000000000000000000000000000000000000000000000600052603260045260246000fd5b6000611c15826111bc565b91507fffffffffffffffffffffffffffffffffffffffffffffffffffffffffffffffff8203611c4757611c46611b36565b5b600182019050919050565b7f43616d706169676e2068617320656e6465640000000000000000000000000000600082015250565b6000611c886012836110db565b9150611c9382611c52565b602082019050919050565b60006020820190508181036000830152611cb781611c7b565b9050919050565b7f57726f6e67204554482076616c75650000000000000000000000000000000000600082015250565b6000611cf4600f836110db565b9150611cff82611cbe565b602082019050919050565b60006020820190508181036000830152611d2381611ce7565b9050919050565b7f43616d706169676e206578697374730000000000000000000000000000000000600082015250565b6000611d60600f836110db565b9150611d6b82611d2a565b602082019050919050565b60006020820190508181036000830152611d8f81611d53565b9050919050565b7f43616d706169676e20656e646564000000000000000000000000000000000000600082015250565b6000611dcc600e836110db565b9150611dd782611d96565b602082019050919050565b60006020820190508181036000830152611dfb81611dbf565b9050919050565b600082905092915050565b60008190508160005260206000209050919050565b60006020601f8301049050919050565b600082821b905092915050565b600060088302611e6f7fffffffffffffffffffffffffffffffffffffffffffffffffffffffffffffffff82611e32565b611e798683611e32565b95508019841693508086168417925050509392505050565b6000819050919050565b6000611eb6611eb1611eac846111bc565b611e91565b6111bc565b9050919050565b6000819050919050565b611ed083611e9b565b611ee4611edc82611ebd565b848454611e3f565b825550505050565b600090565b611ef9611eec565b611f04818484611ec7565b505050565b5b81811015611f2857611f1d600082611ef1565b600181019050611f0a565b5050565b601f821115611f6d57611f3e81611e0d565b611f4784611e22565b81016020851015611f56578190505b611f6a611f6285611e22565b830182611f09565b50505b505050565b600082821c905092915050565b6000611f9060001984600802611f72565b1980831691505092915050565b6000611fa98383611f7f565b9150826002028217905092915050565b611fc38383611e02565b67ffffffffffffffff811115611fdc57611fdb611b07565b5b611fe6825461179a565b611ff1828285611f2c565b6000601f831160018114612020576000841561200e578287013590505b6120188582611f9d565b865550612080565b601f19841661202e86611e0d565b60005b8281101561205657848901358255600182019150602085019450602081019050612031565b86831015612073578489013561206f601f891682611f7f565b8355505b6001600288020188555050505b50505050505050565b600061209482611259565b915061209f83611259565b9250828201905060ff8111156120b8576120b7611b36565b5b9291505056fea2646970667358221220581715a5e3b24c2ca5217391b1d9921d5de3ac1ed261109644815e2380a0e8d564736f6c63430008110033",
  "immutableReferences": {},
  "source": "// SPDX-License-Identifier: MIT\r\n\r\npragma solidity ^0.8.17;\r\n\r\ncontract Charity {\r\n    event CampaignStarted(bytes32 campaignId, address initiator);\r\n    event WithdrawFunds(bytes32 campaignId, address initiator, uint256 amount);\r\n    event FundsDonated(bytes32 campaignId, address donor, uint256 amount);\r\n    event CampaignEnded(bytes32 campaignId, address initiator);\r\n\r\n    uint8  private _campaignCount;\r\n\r\n    struct Campaign {\r\n        string title;\r\n        string imgUrl;\r\n        string description;\r\n        bool isLive; \r\n        address initiator;\r\n        uint256 deadline;\r\n        uint256 balance;\r\n    }\r\n\r\n    mapping(uint256 => bytes32) public _campaignsList;\r\n    mapping(bytes32 => Campaign) public _campaigns;\r\n    mapping(address => mapping(bytes32 => uint256))\r\n        public userCampaignDonations;\r\n\r\n    constructor() {}\r\n\r\n    function getCampaignCount() public view returns (uint8) {\r\n        return _campaignCount;\r\n    }\r\n\r\n    function generateCampaignId(\r\n        address initiator,\r\n        string calldata title,\r\n        string calldata description\r\n    ) public pure returns (bytes32) {\r\n        bytes32 campaignId = keccak256(\r\n            abi.encodePacked(title, description, initiator)\r\n        );\r\n        return campaignId;\r\n    }\r\n\r\n    function startCampaign(\r\n        string calldata title,\r\n        string calldata description,\r\n        string calldata imgUrl\r\n    ) public {\r\n        uint256 deadline=block.timestamp+3600;\r\n        // generate a campaignID\r\n        // using the title, description and the address of the initiator\r\n        bytes32 campaignId = generateCampaignId(msg.sender, title, description);\r\n\r\n        // get a reference to the campaign with the generated Id\r\n        Campaign storage campaign = _campaigns[campaignId];\r\n        // require that the campaign is not live yet.\r\n        require(!campaign.isLive, \"Campaign exists\");\r\n        // require the current time to be less than the campaign deadline\r\n        require(block.timestamp < deadline, \"Campaign ended\");\r\n\r\n        campaign.title = title;\r\n        campaign.description = description;\r\n        campaign.initiator = msg.sender;\r\n        campaign.imgUrl = imgUrl;\r\n        campaign.deadline = deadline;\r\n        campaign.isLive = true;\r\n\r\n        _campaignsList[_campaignCount] = campaignId;\r\n\r\n        // increment the total number of charity campaigns created\r\n        _campaignCount = _campaignCount + 1;\r\n\r\n        // emit an event to the blockchain\r\n        emit CampaignStarted(campaignId, msg.sender);\r\n    }\r\n\r\n    function endCampaign(bytes32 campaignId) public {\r\n        Campaign storage campaign = _campaigns[campaignId];\r\n\r\n        // require the msg.sender is the creator of the campaign\r\n        require(msg.sender == campaign.initiator, \"Not campaign initiator\");\r\n        // require the campaign is alive\r\n        require(campaign.isLive, \"campaign is not active\");\r\n\r\n        campaign.isLive = false;\r\n        campaign.deadline = block.timestamp;\r\n\r\n        emit CampaignEnded(campaignId, msg.sender);\r\n    }\r\n\r\n    function getCampaignsInBatch(uint256 _batchNumber) public view returns(bytes32[] memory) {\r\n        bytes32[] memory campaignsToReturn = new bytes32[](5);\r\n\r\n        uint256 index = 5 *_batchNumber;\r\n\r\n        for (uint i = 0; i < 5; i++)\r\n            campaignsToReturn[i] = _campaignsList[index + i];\r\n\r\n        return campaignsToReturn;\r\n    }\r\n\r\n    // allows users to donate to a charity campaign of their choice\r\n    function donateToCampaign(bytes32 campaignId) public payable {\r\n        // get campaign details with the given campaign\r\n        Campaign storage campaign = _campaigns[campaignId];\r\n\r\n        // end the campaign if the deadline is exceeded\r\n        if (block.timestamp > campaign.deadline) {\r\n            campaign.isLive = false;\r\n        }\r\n        // require the campaign has not ended\r\n        require(block.timestamp < campaign.deadline, \"Campaign has ended\");\r\n\r\n        uint256 amountToDonate = msg.value;\r\n        require(amountToDonate > 0, \"Wrong ETH value\");\r\n\r\n        // increase the campaign balance by the amount donated;\r\n        campaign.balance += amountToDonate;\r\n\r\n        // keep track of users donation history\r\n        userCampaignDonations[msg.sender][campaignId] += amountToDonate;\r\n\r\n        // emit FundsDonated event\r\n        emit FundsDonated(campaignId, msg.sender, amountToDonate);\r\n    }\r\n\r\n    // returns the details of a campaign given the campaignId\r\n    function getCampaign(bytes32 campaignId)\r\n        public\r\n        view\r\n        returns (Campaign memory)\r\n    {\r\n        return _campaigns[campaignId];\r\n    }\r\n\r\n    function withdrawCampaignFunds(bytes32 campaignId) public {\r\n        Campaign storage campaign = _campaigns[campaignId];\r\n\r\n        // require the msg.sender is the creator of the campaign\r\n        require(msg.sender == campaign.initiator, \"Not campaign initiator\");\r\n        // require the campaign has ended\r\n        require(!campaign.isLive, \"campaign is still active\");\r\n        require(\r\n            block.timestamp > campaign.deadline,\r\n            \"Campaign is still active\"\r\n        );\r\n        // require the campaign has funds to be withdrawn\r\n        require(campaign.balance > 0, \"No funds to withdraw\");\r\n\r\n        uint256 amountToWithdraw = campaign.balance;\r\n\r\n        // zero the campaign balance\r\n        campaign.balance = 0;\r\n\r\n        // transfer the balance to the initiator address;\r\n        payable(campaign.initiator).transfer(amountToWithdraw);\r\n\r\n        // emit an event to the blockchain\r\n        emit WithdrawFunds(campaignId, campaign.initiator, amountToWithdraw);\r\n    }\r\n}",
  "sourcePath": "C:\\Users\\hp\\Desktop\\crowdfunding\\web\\contracts\\charity.sol",
  "compiler": {
    "name": "solc",
    "version": "0.8.17+commit.8df45f5f.Emscripten.clang"
  },
  "schemaVersion": "3.4.10",
  "updatedAt": "2022-11-23T17:52:16.268Z",
  "networkType": "ethereum",
  "devdoc": {
    "kind": "dev",
    "methods": {},
    "version": 1
  },
  "userdoc": {
    "kind": "user",
    "methods": {},
    "version": 1
  }
}